:100000000C946F000C948C000C948C000C948C005D
:100010000C948C000C948C000C948C000C948C0030
:100020000C948C000C948C000C948C000C948C0020
:100030000C948C000C948C000C948C000C948C0010
:100040000C948C000C948C000C948C000C948C0000
:100050000C948C000C948C000C948C000C948C00F0
:100060000C948C000C948C00001F000000001F00FA
:10007000001F101010101F00001F181818181F0064
:10008000001F1C1C1C1C1F00001F1E1E1E1E1F000C
:10009000001F1F1F1F1F1F0003070F1F0F07030055
:1000A000181C1E1F1E1C1800256900252D35640014
:1000B0004D6F7269746520646520656E7669646948
:1000C0006100436F73697461206C696E6461200024
:1000D000486F6C61206D6920616D6F7200001124A2
:1000E0001FBECFEFD8E0DEBFCDBF11E0A0E0B1E092
:1000F000E4E3F4E102C005900D92A633B107D9F70D
:1001000021E0A6E3B1E001C01D92AB35B207E1F7F3
:100110000E94C9050C94180A0C940000CF93DF9339
:10012000DC01FB016FB7F8948C91822B8C9380815A
:10013000822B80839C91322F309593239C938FE563
:1001400099E00197F1F700C000008081832380834C
:10015000CFE8D1E02197F1F700C00000EA018881E3
:10016000CFE1D3E02197F1F700C000009C91922BE2
:100170009C939081922B9083EFE5F9E03197F1F712
:1001800000C000006FBF282381E009F480E0DF9108
:10019000CF9108950F93CF93DF93FC01AFB7F894FD
:1001A00088E090E031E0B22FB0954081422B40834F
:1001B000EB014881422B488340814B234083532FDE
:1001C000502329F0DAE2DA95F1F700C006C0CFE358
:1001D000D1E02197F1F700C000004081422B40831D
:1001E000552339F0CFE3D1E02197F1F700C00000AB
:1001F00004C0DAE0DA95F1F700C0330F0197A9F6F1
:10020000AFBFDF91CF910F910895EF92FF920F93BF
:100210001F93CF93DF93FC01DB010FB7F89468E0E5
:1002200070E091E080E0122F10953081322B308306
:100230003C91322B3C933081312330833AE03A9524
:10024000F1F700C03C9131233C93CAE1CA95F1F724
:1002500000C0EA0138813223C1E0D0E011F4C0E0EF
:10026000D0E09C9F70019D9FF00C11248E29CFEE51
:10027000D0E02197F1F700C00000990F615071099B
:10028000A1F60FBFDF91CF911F910F91FF90EF90DB
:100290000895382FFC0180E04CE89E2F931B9617A1
:1002A00058F4219198E0522F5827869550FD8427C5
:1002B00026959150C1F7F1CF08956F927F929F924A
:1002C000AF92BF92CF92DF92EF92FF920F931F9364
:1002D000CF93DF937C016B015A01922EE8012097A6
:1002E00021F40CEC0E94CA0011C005E50E94CA006E
:1002F0003E0188E0680E711C0991292DA501B60107
:10030000C7010E94CA00C615D705B1F7DF91CF918A
:100310001F910F91FF90EF90DF90CF90BF90AF9023
:100320009F907F906F900895BF92CF92DF92EF924F
:10033000FF920F931F93CF93DF93EC017B016A0130
:10034000B22E0E948E00813071F02B2DA601B701D4
:10035000CE010E945D0104E42B2DA601B701CE0160
:100360000E94CA0080E0DF91CF911F910F91FF9012
:10037000EF90DF90CF90BF9008957F928F929F92E1
:10038000AF92BF92CF92DF92EF92FF920F931F93A3
:10039000CF93DF936C015B014A01722EE7010E944B
:1003A0008E008130C1F1272DA401B501C6010E9444
:1003B0005D010EEB272DA401B501C6010E94CA0004
:1003C0008E01075F1F4F272DA401B501C6010E94B2
:1003D0000501F70181937F01E017F107A1F79981EA
:1003E0008881892B9A81892B9B81892B9C81892BE0
:1003F0009D81892B9E81892B9F81892B49F068E003
:10040000CE010E9449019885891304C080E003C091
:1004100083E001C082E0DF91CF911F910F91FF90A7
:10042000EF90DF90CF90BF90AF909F908F907F9094
:1004300008956F927F928F929F92AF92CF92EF9298
:10044000FF920F931F93CF93DF93EC014B013A017F
:10045000F22E0E948E00813019F12F2DA301B401DC
:10046000CE010E945D010EE42F2DA301B401CE0147
:100470000E94CA000E2D2F2DA301B401CE010E94AF
:10048000CA000C2D2F2DA301B401CE010E94CA0079
:100490000A2D2F2DA301B401CE010E94CA0080E0D5
:1004A000DF91CF911F910F91FF90EF90CF90AF9080
:1004B0009F908F907F906F900895AF92BF92CF9250
:1004C000DF92EF92FF920F931F93CF936C017B010A
:1004D0005A01C22F0E948E008130B1F02C2FA5014D
:1004E000B701C6010E945D0108E42C2FA501B701E8
:1004F000C6010E94CA00F60180818C2B8083F7011F
:100500008081C82BC08380E0CF911F910F91FF9015
:10051000EF90DF90CF90BF90AF900895CF92DF9291
:10052000EF92FF920F931F93CF93DF93CDB7DEB778
:1005300029970FB6F894DEBF0FBECDBF6701FE014D
:1005400031967F010E94BD01882321F0F6011182BE
:1005500010820BC08A8190E0982F88272981820F12
:10056000911DF6019183808380E029960FB6F8945F
:10057000DEBF0FBECDBFDF91CF911F910F91FF90D6
:10058000EF90DF90CF9008955F926F927F928F925D
:100590009F92AF92BF92CF92DF92EF92FF920F9312
:1005A0001F93CF93DF930115110509F440C0E801B3
:1005B000522E5A016B017C010E948E008130E1F1C4
:1005C00003E3252DA501B601C7010E94CA008E01D3
:1005D0003E0188E0680E711C4E01252DA501B60173
:1005E000C7010E940501F40181934F01E615F7054B
:1005F000A1F7FF8099818881892B9A81892B9B8122
:10060000892B9C81892B9D81892B9E81892B8F2908
:1006100081F067E0CE010E9449018F1561F0F80179
:1006200011928F01E615F705D1F782E005C084E04D
:1006300003C083E001C080E0DF91CF911F910F9153
:10064000FF90EF90DF90CF90BF90AF909F908F90F2
:100650007F906F905F900895E62FE170F0E0EE0FCD
:10066000FF1FEE0FFF1F8E2B61FB442740F950E068
:1006700023E0440F551F2A95E1F7482B62FB222700
:1006800020F930E054E0220F331F5A95E1F7242B74
:1006900063FBAA27A0F9B0E0CD0165E0880F991FA0
:1006A0006A95E1F7822B089598E087FF02C0289AA7
:1006B00001C02898299A2998880F9150B1F72A9A51
:1006C00085E08A95F1F700002A9885E08A95F1F790
:1006D000000008958091360182600E94540385E0F5
:1006E0008A95F1F70000809136018D7F0C945403B8
:1006F000CF93C82F8FE39FE10197F1F700C000006F
:100700006C2F62956F7080E00E942C0380933601FD
:100710000E9454030E946A036C2F80E00E942C0305
:10072000809336010E945403CF910C946A03CF93B7
:10073000C82F8FE39FE10197F1F700C000006C2FF5
:1007400062956F7081E00E942C03809336010E94B5
:1007500054030E946A036C2F81E00E942C03809353
:1007600036010E945403CF910C946A030E949703B0
:1007700080E090E00895EF92FF921F93CF93DF9374
:100780001F92CDB7DEB7182F7C018E2D811B8617E7
:1007900040F4F70181917F0169830E949703698189
:1007A000F4CF0F90DF91CF911F91FF90EF900895BC
:1007B00081E00C94780382E00C947803623031F08D
:1007C000633031F0613029F4805C03C08C5E01C07D
:1007D0008C5A80680C947803EF92FF920F931F93CA
:1007E000CF93DF937C0188E0689FB0011124162F1E
:1007F0001064C0E0D0E0F701EC0FFD1F04918C2FD6
:10080000810F0E947803802F0E9497032196C830A1
:10081000D10589F7DF91CF911F910F91FF90EF9054
:1008200008951F93CF93DF93C8E6D0E060E011E016
:10083000160FCE010E94EC032896612F1630B9F7EF
:10084000DF91CF911F9108952FEF80E792E0215023
:1008500080409040E1F700C0000084B1876084B917
:1008600015B880E00E9454032FEF80E792E02150FA
:1008700080409040E1F700C000008CE0809336019A
:100880000E9454030E946A038FE39CE90197F1F7E9
:1008900000C00000809136010E9454030E946A0348
:1008A0008FE19EE40197F1F700C0000080913601CE
:1008B0000E9454030E946A038FE19EE40197F1F7BE
:1008C00000C0000088E0809336010E9454030E941B
:1008D0006A038FE19EE40197F1F700C0000088E20F
:1008E0000E9478038CE00E94780386E00E947803DF
:1008F00080E80E9478030C9411040F931F93CF9308
:100900008C01862F642F0E94DE03C0E0F801EC0FFB
:10091000F11D9491992329F084910E949703CF5F50
:10092000F5CFCF911F910F910895CF93DF93D82FDB
:10093000C0E0CD1729F08CE10E947803CF5FF9CF9A
:10094000DF91CF910895CF93DF93D82FC0E0CD17DB
:1009500029F088E10E947803CF5FF9CFDF91CF9132
:1009600008958EE00C9478038FE00C9478038CE06B
:100970000C94780388E00C9478038CE00C94780352
:10098000CF93DF93D82FC0E0CD1729F080E10E94EC
:100990007803CF5FF9CFDF91CF910895CF93DF93A5
:1009A000D82FC0E0CD1729F084E10E947803CF5FF3
:1009B000F9CFDF91CF910895CF92DF92EF92FF921E
:1009C0000F931F93CF93DF931F92CDB7DEB7F42E13
:1009D00029830E94DE0386E0E89EA001112429817C
:1009E000249FC001259F900D1124602F70E00E946C
:1009F000ED068B01CB0166E070E00E94D906D82E8F
:100A0000CC24CA94CE0CE12C8FEFC816D9F0F1108B
:100A100002C02E2D01C02C2D86E0289F90011124AC
:100A2000C90105960817190728F40217130720F0C3
:100A30008D2D03C085E001C080E00E949703E39400
:100A4000CA94E2CF0F90DF91CF911F910F91FF9049
:100A5000EF90DF90CF900895CF93DF93CDB7DEB7BF
:100A60006F818E810E94DE038D81AE01465F5F4FF4
:100A700068857985882329F080E091E00E945407F9
:100A800004C080E091E00E946307DF91CF91089558
:100A9000CF93C82F8A3019F48DE00E9448058091C9
:100AA000C00085FFFCCFC093C60080E090E0CF91EE
:100AB00008958091C00087FFFCCF8091C60090E030
:100AC00008951092C50087E68093C40086E0809365
:100AD000C20088E18093C100E5E5F1E08CE191E09E
:100AE000938382838EE091E09183808308958130A7
:100AF000910551F018F0029769F0089501C0440F74
:100B00006A95EAF745B9089501C0440F6A95EAF776
:100B100048B9089501C0440F6A95EAF74BB90895A2
:100B20008130910539F020F0029779F429B103C0A2
:100B300023B101C026B130E002C0359527956A95F2
:100B4000E2F721703327C901089508958130910596
:100B500061F018F0029789F0089584B101C0440F44
:100B60006A95EAF7482B44B9089587B101C0440F4C
:100B70006A95EAF7482B47B908958AB101C0440F36
:100B80006A95EAF7482B4AB9089514B817B81AB805
:100B90000895CF93DF9300D0CDB7DEB70E94C5058F
:100BA0000E9461050E9424040E94D8030E94B70499
:100BB0000E94DB0340E060E080ED90E00E947D0455
:100BC00041E060E082EC90E00E947D042FEF3DE385
:100BD00089E4215030408040E1F700C000000E94CD
:100BE000D80341E050E065E070E080E090E00E94D2
:100BF000A60540E050E064E070E080E090E00E94F4
:100C0000A60541E050E064E070E080E090E00E94E2
:100C1000770532E3C32E31E0D32E41E4A42E41E028
:100C2000B42E5BEA852E50E0952E5524539468EA45
:100C3000662E60E0762E60912E0170912F018091DA
:100C40003001909131010E94900590933E01809374
:100C50003D01892B79F041E050E065E070E080E0F3
:100C600090E00E94770542E060E080EB90E00E9417
:100C70007D0408C040E050E065E070E080E090E076
:100C80000E94770560912C0170912D0180913001B7
:100C9000909131010E949005909338018093370123
:100CA0002091390130913A01232B09F079C0019745
:100CB00009F076C060912A0170912B01809130017A
:100CC000909131010E94900520913B0130913C01AF
:100CD000892B19F42150310902C02F5F3F4F309307
:100CE0003C0120933B0180913C018F9380913B011B
:100CF0008F93DF92CF92BF92AF920E94310781E42F
:100D000091E00E9401070E94D80380913C018F93DB
:100D100080913B018F939F928F921F921F925F92BF
:100D20000E942C0500E010E021E046E250E067E27E
:100D300070E088E290E00E9494019FEF23ED30E3A1
:100D4000915020403040E1F700C00000CE010196F4
:100D50007C0121E046E250E067E270E088E290E04A
:100D60000E948E0289819A810FB6F894DEBF0FBE71
:100D7000CDBF97FD0F9624E0959587952A95E1F7CD
:100D800089839A839F938F937F926F925F921F9232
:100D90005F920E942C050FB6F894DEBF0FBECDBF48
:100DA000809137019091380190933A0180933901F5
:100DB00042CFAA1BBB1B51E107C0AA1FBB1FA6172E
:100DC000B70710F0A61BB70B881F991F5A95A9F7F4
:100DD00080959095BC01CD01089597FB072E16F4E0
:100DE000009407D077FD09D00E94D90607FC05D0F2
:100DF0003EF4909581959F4F0895709561957F4F32
:100E000008950F931F93CF93DF93E0915701F091D3
:100E10005801238121FF1BC08C01D0E0C0E0F80104
:100E200081918F016091570170915801DB011896F3
:100E3000ED91FC911997882331F00995892B79F36D
:100E4000DFEFCFEFECCF8AE00995892B19F08FEF18
:100E50009FEF02C08D2F9C2FDF91CF911F910F919B
:100E60000895AEE0B0E0E7E3F7E00C94EF090D89F8
:100E70001E8986E08C831A8309838FEF9FE79E8308
:100E80008D83AE01475E5F4F6F89788DCE010196ED
:100E90000E9463072F813885F801E20FF31F10824B
:100EA0002E96E4E00C940B0ACF93DF93EC018B8138
:100EB00088608B83CE010E9463072B81277F2B8361
:100EC000DF91CF910895ACE0B0E0E9E6F7E00C9453
:100ED000E1097C016B018A01FC0117821682838182
:100EE00081FFBDC1CE0101964C01F7019381F6014E
:100EF00093FD859193FF81916F01882309F4ABC124
:100F0000853239F493FD859193FF81916F0185328C
:100F100029F4B70190E00E944B09E7CF512C312C06
:100F200020E02032A0F48B3269F030F4803259F0A6
:100F3000833269F420612CC08D3239F0803339F46A
:100F4000216026C02260246023C0286021C027FDC4
:100F500027C030ED380F3A3078F426FF06C0FAE0AB
:100F60005F9E300D1124532E13C08AE0389E300D41
:100F70001124332E20620CC08E3221F426FD6BC169
:100F8000206406C08C3611F4206802C0883641F413
:100F9000F60193FD859193FF81916F018111C1CF7E
:100FA000982F9F7D9554933028F40C5F1F4FFFE3DB
:100FB000F9830DC0833631F0833771F0833509F042
:100FC0005BC022C0F801808189830E5F1F4F4424DB
:100FD0004394512C540115C03801F2E06F0E711C7E
:100FE000F801A080B18026FF03C0652D70E002C02B
:100FF0006FEF7FEFC5012C870E9440092C01830110
:101000002C852F77222E17C03801F2E06F0E711C4D
:10101000F801A080B18026FF03C0652D70E002C0FA
:101020006FEF7FEFC5012C870E9435092C012C85BD
:101030002068222E830123FC1BC0832D90E04816DC
:101040005906B0F4B70180E290E00E944B093A944F
:10105000F4CFF50127FC859127FE81915F01B7014F
:1010600090E00E944B0931103A94F1E04F1A510878
:101070004114510471F7E5C0843611F0893639F511
:10108000F80127FF07C060817181828193810C5F25
:101090001F4F08C060817181072E000C880B990BCF
:1010A0000E5F1F4F2F76722E97FF09C09095809587
:1010B000709561957F4F8F4F9F4F2068722E2AE069
:1010C00030E0A4010E948309A82EA81844C08537E7
:1010D00029F42F7EB22E2AE030E025C0F22FF97FCE
:1010E000BF2E8F36C1F018F4883579F0B4C0803740
:1010F00019F0883721F0AFC02F2F2061B22EB4FE37
:101100000DC08B2D8460B82E09C024FF0AC09F2F0C
:101110009660B92E06C028E030E005C020E130E03E
:1011200002C020E132E0F801B7FE07C060817181A2
:10113000828193810C5F1F4F06C06081718180E0C6
:1011400090E00E5F1F4FA4010E948309A82EA818EB
:10115000FB2DFF777F2E76FE0BC0372D3E7FA5142B
:1011600050F474FE0AC072FC08C0372D3E7E05C0E4
:10117000BA2C372D03C0BA2C01C0B52C34FF0DC0DA
:10118000FE01EA0DF11D8081803311F4397E09C022
:1011900032FF06C0B394B39404C0832F867809F05D
:1011A000B39433FD13C030FF06C05A2CB31418F4A7
:1011B000530C5B18B32CB31468F4B70180E290E0D1
:1011C0003C870E944B09B3943C85F5CFB31410F4CF
:1011D0003B1801C0312C34FF12C0B70180E390E00E
:1011E0003C870E944B093C8532FF17C031FD03C08C
:1011F00088E790E002C088E590E0B7010CC0832F3B
:10120000867859F031FF02C08BE201C080E237FDE1
:101210008DE2B70190E00E944B09A51438F4B701A4
:1012200080E390E00E944B095A94F7CFAA94F4010E
:10123000EA0DF11D8081B70190E00E944B09A110D9
:10124000F5CF332009F451CEB70180E290E00E943F
:101250004B093A94F6CFF7018681978102C08FEF50
:101260009FEF2C96E2E10C94FD09FC010590615082
:1012700070400110D8F7809590958E0F9F1F0895AC
:10128000FC016150704001900110D8F78095909555
:101290008E0F9F1F08950F931F93CF93DF93FB0132
:1012A000238121FD03C08FEF9FEF28C022FF16C0CE
:1012B00046815781248135814217530744F4A08128
:1012C000B1819D012F5F3F4F318320838C93268115
:1012D00037812F5F3F4F3783268310C0EB01092FE3
:1012E000182F0084F185E02D0995892BE1F68E8178
:1012F0009F8101969F838E83812F902FDF91CF91C5
:101300001F910F910895FA01AA27283051F1203139
:1013100081F1E8946F936E7F6E5F7F4F8F4F9F4F89
:10132000AF4FB1E03ED0B4E03CD0670F781F891FCB
:101330009A1FA11D680F791F8A1F911DA11D6A0F99
:10134000711D811D911DA11D20D009F468943F914C
:101350002AE0269F11243019305D3193DEF6CF014B
:101360000895462F4770405D4193B3E00FD0C9F711
:10137000F6CF462F4F70405D4A3318F0495D31FD7E
:101380004052419302D0A9F7EACFB4E0A6959795D1
:10139000879577956795BA95C9F7009761057105A7
:1013A00008959B01AC010A2E0694579547953795F1
:1013B0002795BA95C9F7620F731F841F951FA01D4B
:1013C00008952F923F924F925F926F927F928F92E9
:1013D0009F92AF92BF92CF92DF92EF92FF920F93C4
:1013E0001F93CF93DF93CDB7DEB7CA1BDB0B0FB6CE
:1013F000F894DEBF0FBECDBF09942A88398848888B
:101400005F846E847D848C849B84AA84B984C88420
:10141000DF80EE80FD800C811B81AA81B981CE0F17
:10142000D11D0FB6F894DEBF0FBECDBFED010895FC
:04143000F894FFCF5E
:101434000000000200000000B603000000000000ED
:101444000001000000000000590500000000000237
:101454000000000048050000000004000300020032
:06146400020025690000F2
:00000001FF
